:100000000C9456000C9473000C9473000C94950798
:100010000C9473000C9473000C9473000C94730094
:100020000C9473000C9473000C9473000C94730084
:100030000C9473000C9473000C9473000C94730074
:100040000C9473000C9473000C9473000C94730064
:100050000C9447070C9473000C9473000C94730079
:100060000C9473000C9473000C9473000C94730044
:100070000C9473000C9473000C9473000C94730034
:100080000C9473000C9473000C9473000C94730024
:100090000C9494010C9473000C9473000C947300F2
:1000A0000C9473000C9473000C94730011241FBE05
:1000B000CFEFDAE0DEBFCDBF11E0A0E0B1E0E6E6D1
:1000C000F6E102C005900D92AA34B107D9F721E0FC
:1000D000AAE4B1E001C01D92A538B207E1F70E9481
:1000E000EC070C94310B0C940000089521E0FC0106
:1000F00022830895CF92DF92EF92FF920F931F9386
:10010000CF93DF93FC0186819781891708F056C051
:10011000208143815481289F400D511D11248F5F00
:10012000868300E011E0C1E0D0E0FF24F394A1EE6B
:10013000B0E062E070E02BC01093580100935701CB
:10014000D0935601C09355015093540140935301ED
:100150003093520120935101F0925001B0934F011E
:10016000A0934E01F0934D01E0934C0170934B012D
:1001700060934A01990F909359019091BC00906A45
:100180009093BC0081E0EFBE81110FC0208130E070
:100190009581EFB6F894C0904A01D0904B01CD28DC
:1001A00059F280E0EFBE882389F3DF91CF911F9150
:1001B0000F91FF90EF90DF90CF90089581E08283C0
:1001C000F4CF0F931F93CF93DF93FC018681806B55
:1001D00080930A01C5E0D1E0A6E0B0E061E04AE723
:1001E00050E022E030E02AC0D0935801C09357017C
:1001F000B0935601A09355011092540110925301EF
:1002000010925201109251016093500150934F018E
:1002100040934E01F0934D01E0934C0130934B011C
:1002200020934A01990F909359019091BC00906AD4
:100230009093BC0081E07FBF81110DC095817FB795
:10024000F89400914A0110914B01012B69F280E072
:100250007FBF882399F3DF91CF911F910F9108956C
:10026000CF93DF9300D01F92CDB7DEB79B838A83F5
:100270008FEF89838A819B819C01215031093B83C7
:100280002A83892B39F089819FEF980F99838111F7
:10029000FACFF0CF0F900F900F90DF91CF9108958C
:1002A000AF92CF92DF92EF92FF920F931F939FB77F
:1002B000F894E0914A01F0914B01EF2B99F570937E
:1002C00058016093570150E05093560140935501F7
:1002D0003093540120935301109352010093510124
:1002E000A0925001F0924F01E0924E01D0924D0148
:1002F000C0924C0122E030E030934B0120934A0140
:10030000880F809359018091BC00806A8093BC0063
:1003100081E09FBF1F910F91FF90EF90DF90CF90F2
:10032000AF90089580E0F5CF1F920F920FB60F9215
:1003300011242F933F934F935F936F937F938F93EA
:100340009F93AF93BF93EF93FF9380914A01909156
:100350004B018230910509F47CC008F467C08330FA
:100360009105D1F1049739F5E0915301F0915401D1
:10037000CF01019690935401809353018081809323
:10038000BB008091510190915201019790935201CD
:10039000809351018091BC0080688093BC00809163
:1003A000510190915201892B31F481E090E09093BA
:1003B0004B0180934A01FF91EF91BF91AF919F91C3
:1003C0008F917F916F915F914F913F912F910F90FE
:1003D0000FBE0F901F901895E0915701F0915801B2
:1003E000CF010196909358018093570180818093AB
:1003F000BB00809155019091560101979093560151
:10040000809355018091BC0080688093BC008091EE
:10041000550190915601892B71F68091530190916D
:100420005401892B11F284E090E0C1CF8091BC008F
:1004300080698093BC0010924B0110924A01E091B8
:100440004E01F0914F0180914C0190914D01099521
:10045000B2CF809159018093BB008091BC008F7511
:1004600080688093BC008091570190915801892B3E
:1004700039F083E090E090934B0180934A019BCF49
:100480008091530190915401892B09F48ECF84E01F
:1004900090E090934B0180934A018DCF0F931F936F
:1004A000CF93DF93DC0160930401FC0132960FB619
:1004B000F894808110820FBE8111F9CFC1E0D1E0A4
:1004C000E4E0F0E061E046E750E022E030E02AC0FE
:1004D000D0935801C0935701F0935601E093550112
:1004E0001092540110925301109252011092510136
:1004F0006093500150934F0140934E01B0934D01D2
:10050000A0934C0130934B0120934A01990F909393
:1005100059019091BC00906A9093BC0081E07FBF2C
:1005200081110FC015969C9115977FB7F894009193
:100530004A0110914B01012B59F280E07FBF8823C3
:1005400089F3DF91CF911F910F910895DC01FC0198
:1005500032960FB6F894908110820FBE9111F9CFA8
:1005600016961C921697CD010C94E100CF92EF9253
:10057000FF920F931F93CF93DF93EC01688349831E
:100580003C832B8381E08A83CD821E8288E08F8327
:1005900010924B0110924A01809164008F778093F2
:1005A0006400A8019701220F331F441F551F60E00C
:1005B00074E284EF90E00E94EC0ABA01A90148506D
:1005C0005109610971094F3F51056105710509F034
:1005D00008F494C0769567955795479576956795F5
:1005E000579547954F3F51056105710509F008F48E
:1005F00087C07695679557954795769567955795F2
:1006000047954F3F51056105710509F008F47EC01B
:10061000769567955795479576956795579547953C
:100620004F3F51056105710509F008F46CC07695DE
:10063000679557954795769567955795479590E0B7
:100640004093B8008091B9008C7F892B8093B900CA
:1006500085E08093BC008D814FB7F89420914A01CA
:1006600030914B01232B09F047C02BE031E0309350
:100670005801209357012CE030E03093560120932D
:100680005501109254011092530110925201109290
:10069000510191E09093500125E730E030934F01F4
:1006A00020934E0110924D0110924C0122E030E057
:1006B00030934B0120934A01880F80935901809118
:1006C000BC00806A8093BC0081E04FBF81110AC0EA
:1006D00083E090E0DF91CF911F910F91FF90EF9019
:1006E000CF90089580E090E0DF91CF911F910F911E
:1006F000FF90EF90CF90089580E0E7CF90E0A0CFFB
:1007000081E0982F9DCF83E0982F9ACF82E0982F99
:1007100097CFDC013C91631728F511965C911197F6
:10072000451700F5542F56955695569570E0539FF2
:10073000600D711D11244770211117C0DC01139643
:10074000ED91FC911497E60FF71F81E090E001C056
:10075000880F4A95EAF7809590818923808380E00D
:1007600090E0089581E090E008951396ED91FC915A
:100770001497E60FF71F81E090E001C0880F4A95BB
:10078000EAF79081892B808380E090E00895AF9212
:10079000BF92CF92DF92EF92FF920F931F93CF936E
:1007A000DF93FC0184E0E816F10468F082E090E059
:1007B000DF91CF911F910F91FF90EF90DF90CF903D
:1007C000BF90AF900895A0818FEF8A0F5181515053
:1007D000861778F090E0821710F49F5F282F541747
:1007E00008F06FC0501748F4923031F481E090E087
:1007F000DFCF682F91E0EFCF052FC70181709927D8
:10080000722F621708F4762F302F501708F4352F07
:10081000261708F4262F051708F4052FE1FCA8C0B9
:10082000271708F453C0F32EF694F694F694632F2A
:10083000677041E050E06A0101C0CC0C6A95EAF7AC
:10084000DC2CD094102F169516951695602F677096
:1008500001C0440F6A95EAF7E42EE094B42E672FA6
:1008600012C0CC29CC93A081A19F400D511D112411
:10087000A381B481A40FB51F4C914B294C936F5F9A
:10088000261720F1A081462F50E0EA01FA9EC00D04
:10089000D11D1124DE01C381D481AC0FBD1FCC91C9
:1008A0000097F9F6CD21CC93A0811A9F400D511DE0
:1008B0001124A381B481A40FB51F4C914E214C93F8
:1008C000DECF501708F4052F542F97CF031708F4E5
:1008D0004CC0E72EF12CC22ED12CC1E0D0E018C0C4
:1008E0005E0101C0AA0C2A95EAF72C912A292C93C3
:1008F0002081A601629F400D511D1124A381B48166
:10090000A40FB51F2C912A292C933F5F031768F180
:10091000632F6695669566952081A701629F400DBD
:10092000511D1124232F2770A381B481A40FB51F5B
:100930000097B1F6AE0101C0440F2A95EAF7409541
:100940002C9124232C932081D601629FA00DB11DF0
:100950001124BD01A381B481A60FB71F2C9142239E
:100960004C93D3CF7F5F271740F480E090E020CFF7
:100970002717D8F3CC24C394D12C031798F3E72E70
:10098000F12C432F06C05C91C52BCC934F5F04170D
:1009900048F36081542F569556955695E701569F1A
:1009A000C00DD11D1124542F5770A381B481AC0FF9
:1009B000BD1FE60101C0CC0F5A95EAF7009719F761
:1009C000C0955C91C523CC93E1CF8F929F92AF925B
:1009D000BF92CF92DF92EF920F931F93CF93DF934B
:1009E000FC0180E48E1508F442C0013808F03FC0D5
:1009F0008E2D877009F0E81A842F86958695869546
:100A00009081462F50E0899F400D511D1124E6949E
:100A1000E694E694C114D104B1F181E0C816D10482
:100A200009F058C0EE2019F1A02EB12C690110E098
:100A30006FEF600F70E06F5F7F4F002389F09B01C5
:100A4000240F351FE601CA01A381B481A80FB91F85
:100A500099908C9098289C92019628173907A1F7B5
:100A60001F5F40585F4FCA0CDB1C1E11E6CFDF91A1
:100A7000CF911F910F91EF90DF90CF90BF90AF90EB
:100A80009F908F900895EE2091F3C02ED12CB90144
:100A9000812CAA24AA94A00EB12C8FEFA81AB80A10
:100AA000002381F0C501840F951FEB019A019990F5
:100AB000A381B481A20FB31F9C922F5F3F4F821777
:100AC0009307A9F7839440585F4F6C0D7D1D8E10DE
:100AD000E7CFCDCF82E0C816D10451F5EE2039F230
:100AE000802E912C690110E0AA24AA94A00EB12CAA
:100AF0008FEFA81AB80A002399F0B501640F751F8B
:100B0000E6019A01A381B481A20FB31F8991809558
:100B10009C9189238C932F5F3F4F6217730791F746
:100B20001F5F40585F4FC80CD91C1E11E4CF9FCFE8
:100B300083E0C816D10439F5EE2009F498CFA02E31
:100B4000B12C690110E06FEF600F70E06F5F7F4FB5
:100B5000002389F09B01240F351FE601CA01A38100
:100B6000B481A80FB91F99908C9098249C920196FB
:100B700028173907A1F71F5F40585F4FCA0CDB1CCD
:100B80001E11E6CF74CF84E0C816D10409F06FCFF0
:100B9000EE2009F46CCF60E0CFEFC00FD0E02196DB
:100BA000002369F09E01240F351FCA01A381B4817F
:100BB000A80FB91F1C92019628173907B9F76F5F64
:100BC00040585F4F6E11ECCF52CF1092DA00109266
:100BD000E10080E08093E9001092F0001092E800BC
:100BE0008F5F8630B9F70895E1E8F0E08081856095
:100BF0008083EFE6F0E080818160808384EF9BEF6B
:100C000090938500809384000895EA9AE9E6F0E0E5
:100C100080818A608083529A5A9A0895AC01FB01C0
:100C20009A01ADECBCEC0E940E0B969587959695BB
:100C3000879596958795BC01660F771F9C01220FBB
:100C4000331F220F331F220F331F260F371F421B64
:100C5000530B4193AC01892B19F708950F931F9300
:100C6000CF93DF9300D000D000D0CDB7DEB7FC012A
:100C70009A83898303969C838B8303969E838D83BB
:100C8000AE014D5F5F4F8E01095F1F4F61E070E065
:100C9000A081B18114960D90BC91A02D9C919B01D7
:100CA000028002C0220F331F0A94E2F7822F809540
:100CB00089238C93A081B1810D90BC91A02D2C91A2
:100CC000CB01028002C0880F991F0A94E2F7822BA1
:100CD0008C934017510729F0DA01ED91FD91AD0198
:100CE000D7CF26960FB6F894DEBF0FBECDBFDF91EB
:100CF000CF911F910F910895DF92EF92FF920F9382
:100D00001F93CF93DF93EC01D62E88E0E82EF12CD1
:100D100001E010E036C02081C801088402C0880FBD
:100D2000991F0A94E2F7822B8083E881F98104807D
:100D3000F581E02D908198010A8002C0220F331FB7
:100D40000A94E2F7822F809589238083E985FA85CA
:100D500085E00995E881F9810480F581E02D208105
:100D6000C8010A8002C0880F991F0A94E2F7822BFB
:100D70008083E985FA8585E0099581E0E81AF10824
:100D8000C9F08D2D881F8827881FDD0CEE81FF811B
:100D90000480F581E02D8111BECF908198010884F7
:100DA00002C0220F331F0A94E2F7822F8095892315
:100DB0008083BBCFDF91CF911F910F91FF90EF9078
:100DC000DF9008950F931F93CF93DF93EC01EB8196
:100DD000FC810480F581E02D908101E010E0980114
:100DE0000D8002C0220F331F0A94E2F7822F8095F4
:100DF00089238083E985FA8585E00995EB81FC816B
:100E00000480F581E02D80810D8002C0000F111F4C
:100E10000A94E2F7082B0083E985FA8585E0DF91E3
:100E2000CF911F910F910994CF92DF92EF92FF9291
:100E30001F93CF93DF93EC016B017B0184E0E80EFD
:100E4000F11C11E0F70162917F018D85811101C0D4
:100E50006095CE010E947C06612FCE010E947C0627
:100E6000110FCE010E94E206EB85FC8581E090E047
:100E70000995EC14FD0431F7DF91CF911F91FF909C
:100E8000EF90DF90CF9008958A95F1F708951F9223
:100E90000F920FB60F921124CF92DF92EF920F9321
:100EA0002F933F934F935F936F937F938F939F9372
:100EB000AF93BF93EF93FF9384E0C82ED12C99E0BA
:100EC000E92E0DE02FE231E040913D016EE18DE72A
:100ED00091E00E94E50440913D014F5F40933D0148
:100EE00023E0C22ED12C2FE231E06EE18DE791E0BC
:100EF0000E94E50484EF9BEF90938500809384002B
:100F0000FF91EF91BF91AF919F918F917F916F91E1
:100F10005F914F913F912F910F91EF90DF90CF9084
:100F20000F900FBE0F901F9018951F920F920FB643
:100F30000F921124CF92DF92EF920F932F933F9352
:100F40004F935F936F937F938F939F93AF93BF93D1
:100F5000EF93FF934A9B15C0FF91EF91BF91AF9123
:100F60009F918F917F916F915F914F913F912F91C1
:100F70000F91EF90DF90CF900F900FBE0F901F90CA
:100F800018958CE390E00E9430014A99E5CF84E007
:100F9000C82ED12C99E0E92E0DE02FE231E04091EE
:100FA0003D016EE18DE791E00E94E50440913D0135
:100FB000415040933D0123E0C22ED12C2FE231E07D
:100FC0006EE18DE791E00E94E50484EF9BEF909342
:100FD000850080938400C0CFCF93DF93CDB7DEB779
:100FE000D4500FB6F894DEBF0FBECDBF0E94E5050A
:100FF00087E191E00E942E0678949E012F5F3F4F7B
:1010000080E094E0F901AC01119241505040E1F7C9
:101010004CE3C42EE12C15E3F12E0CE010E040E48B
:1010200060E88DE791E00E94B60280913E0157E0B2
:10103000859FC001112408966FE170E00E94D80AD4
:1010400080933E0180937B018B3091051CF4865F79
:1010500080937B0183E980935C0183EE80935B0145
:10106000CC24C394D12C79E0E72E0DE02FE231E0BF
:1010700040913D016EE18DE791E00E94E5040E9400
:10108000F4050E940506EFE7AE2EE1E0BE2E11E06A
:10109000FFE18F2E912CAEE14A2EB3E96B2E03EEC9
:1010A000702E8DEC282E99E2392E24E1522EF50176
:1010B0000FB6F894808110820FBE8111F8CF609135
:1010C0005C01653108F4E2C12CEE260F43E0E42E0A
:1010D000F12C00917B0140E08DE791E00E94C70375
:1010E00060915C012CEE260F40917B01475E0FE37F
:1010F0008DE791E00E94C70360915C016F5F52E051
:10110000E52EF12C00917B012FE740E08DE791E087
:101110000E94C70340917B014C5E60915C016F5F50
:101120000FE32FE78DE791E00E94C70310937F0143
:1011300080915C01882309F4BAC1815080935C01DD
:10114000F5010FB6F894808110820FBE8111F8CF9F
:1011500060915B01653108F414C12CEE260F83E029
:10116000E82EF12C00917C0140E08DE791E00E9497
:10117000C70360915B012CEE260F40917C01475E16
:101180000FE38DE791E00E94C70360915B016F5F01
:1011900092E0E92EF12C00917C012FE740E08DE7F1
:1011A00091E00E94C70340917C014C5E60915B011D
:1011B0006F5F0FE32FE78DE791E00E94C703109365
:1011C0007F0180915B01882309F4ECC081508093FA
:1011D0005B0180913D018A508C3208F009C18091F9
:1011E0005C0192EE980F953108F061C020913D01AD
:1011F00030E080917B0190E0AC014A5E5F4F2417A4
:1012000035072CF40396821793070CF453C032E091
:10121000E32EF12C0FE32FE740E060E08DE791E053
:101220000E94C70344E0C42ED12C59E0E52E0DE006
:101230002FE231E040913D016EE18DE791E00E94A7
:10124000E50450923D0180913E0147E0849FC0013A
:1012500011240896B4010E94D80A9C0180937B0156
:10126000880F991F880F991F880F991F821B930B56
:101270000896B4010E94D80A80933E0180937C01B5
:1012800060925C0170925B0110925A018FE380932F
:101290002E0180932D0180932C0180932B016BE212
:1012A00071E087E191E00E94140780915C018C312C
:1012B00009F41CC180915B0192EE980F953108F002
:1012C00052C020913D0130E080917C0190E0AC0162
:1012D0004A5E5F4F241735072CF403968217930755
:1012E0000CF444C082E0E82EF12C0FE32FE740E03D
:1012F00060E08DE791E00E94C70394E0C92ED12CF5
:1013000029E0E22E0DE02FE231E040913D016EE157
:101310008DE791E00E94E50450923D0180913E01ED
:10132000E7E08E9FC00111240896B4010E94D80AFC
:1013300080933E0180937C0160925C0170925B011E
:1013400010925A018FE380932E0180932D01809398
:101350002C0180932B016BE271E087E191E00E9408
:10136000140780915B018C3109F4F1C06BE271E0EC
:1013700087E191E00E9414078DE791E00E94A602A8
:1013800096CE6F5F02E0E02EF12C0FE3262F40E0B7
:101390008DE791E00E94C70310937F0180915B016C
:1013A000811114CFB2E0EB2EF12C0FE320E040E0EE
:1013B00060E08DE791E00E94C70380913E01F7E075
:1013C0008F9FC00111240896B4010E94D80A80930F
:1013D0003E018B3091050CF4865F80937C0182E99D
:1013E00080935B0180913D018A508C3208F4F7CEE6
:1013F00072E0E72EF12C0FE32FE740E060E08DE78D
:1014000091E00E94C70340923D01E3E0CE2ED12C33
:10141000F9E0EF2E0DE02FE231E04EE16EE18DE7D5
:1014200091E00E94E50480913E0127E0829FC00187
:1014300011240896B4010E94D80A9C0180937B0174
:10144000880F991F880F991F880F991F821B930B74
:101450000896B4010E94D80A80933E0180937C01D3
:1014600060925C0170925B0110925A018FE380934D
:101470002E0180932D0180932C0180932B016BE230
:1014800071E087E191E00E941407A9CE6F5F32E01E
:10149000E32EF12C0FE3262F40E08DE791E00E9430
:1014A000C70310937F0180915C01811146CE22E039
:1014B000E22EF12C0FE320E040E060E08DE791E0C8
:1014C0000E94C70380913E01F7E08F9FC001112465
:1014D0000896B4010E94D80A80933E018B30910592
:1014E0000CF4865F80937B0182E928CE80915A01BB
:1014F0008F5F80935A01829DE12D1124E695E69538
:10150000E695A82F5AE0E59FA0191124B0E0A15C50
:10151000BE4F9C9190932E01F0E0E15CFE4F9081D4
:1015200090932D01839DE12D1124E295EF70F0E061
:10153000E15CFE4F808180932C018FE380932B012F
:101540006BE271E087E191E00E941407B3CE8091D5
:101550005A018F5F80935A01829DE12D1124E695F7
:10156000E695E695A82FFAE0EF9FA0191124B0E0C8
:10157000A15CBE4F9C9190932E01F0E0E15CFE4F88
:10158000908190932D01839DE12D1124E295EF70C0
:10159000F0E0E15CFE4F808180932C018FE380932B
:1015A0002B016BE271E087E191E00E941407DECE2F
:1015B00097FB072E16F4009407D077FD09D00E9400
:1015C0001D0B07FC05D03EF4909581959F4F089523
:1015D000709561957F4F0895A1E21A2EAA1BBB1B3F
:1015E000FD010DC0AA1FBB1FEE1FFF1FA217B307EF
:1015F000E407F50720F0A21BB30BE40BF50B661F05
:10160000771F881F991F1A9469F7609570958095C8
:1016100090959B01AC01BD01CF010895A29FB0013F
:10162000B39FC001A39F700D811D1124911DB29F16
:10163000700D811D1124911D0895AA1BBB1B51E142
:1016400007C0AA1FBB1FA617B70710F0A61BB70B32
:10165000881F991F5A95A9F780959095BC01CD01D7
:061660000895F894FFCF8D
:1016660040808180FF8000801080B0808D80148053
:10167600AF808180FF80A72501042501052501068D
:1016860044073001002400230025003F3F3F3F2050
:1016960038CEC3F1C1C1818DE5232C3800190A3F2C
:0A16A600065B4F666D7D077F6F0045
:00000001FF
