:100000000C94D6000C94F3000C94F3000C94F300C1
:100010000C94F3000C94F3000C94F3000C94F30094
:100020000C94F3000C94F3000C94F3000C94F30084
:100030000C94F3000C94F3000C94F3000C94F30074
:100040000C94F3000C94F3000C94F3000C94F30064
:100050000C94F3000C94F3000C94F3000C94F30054
:100060000C94F3000C94F3000C94F3000C94F30044
:100070000C94F3000C94F3000C94F3000C94F30034
:100080000C94F3000C94F3000C94F3000C94F30024
:100090000C94F3000C94F3000C94F3000C94F30014
:1000A0000C94F3000C94F3000C94F300005EBCE29B
:1000B000613FDD83C29C7E20A3FD1F419DC3217F44
:1000C000FCA2401E5F01E3BD3E6082DC237D9FC138
:1000D000421CFEA0E1BF5D0380DE3C62BEE0025C2C
:1000E000DF81633D7C22C09E1D43A1FF4618FAA418
:1000F00027799BC584DA3866E5BB5907DB85673904
:10010000BAE406581947A5FB7826C49A653BD987F7
:10011000045AB8E6A7F91B45C6987A24F8A6441AEB
:1001200099C7257B3A6486D85B05E7B98CD2306ED7
:10013000EDB3510F4E10F2AC2F7193CD114FADF3C3
:10014000702ECC92D38D6F31B2EC0E50AFF1134DB7
:10015000CE90722C6D33D18F0C52B0EE326C8ED0AB
:10016000530DEFB1F0AE4C1291CF2D73CA94762897
:10017000ABF517490856B4EA6937D58B5709EBB583
:1001800036688AD495CB2977F4AA4816E9B7550B77
:1001900088D6346A2B7597C94A14F6A8742AC8966B
:1001A000154BA9F7B6E80A54D7896B3511241FBE41
:1001B000CFEFDAE0DEBFCDBF12E0A0E0B1E0E4E5D2
:1001C000FDE002C005900D92AC3DB107D9F723E0E8
:1001D000ACEDB2E001C01D92AD35B207E1F70E946F
:1001E00042050C94A8060C9400009091C80095FF5D
:1001F000FCCF8093CE0008958091C80087FFFCCF8C
:100200008091CE0008951092CD0087E68093CC00B7
:1002100088E18093C9008EE08093CA0008951F93FF
:10022000CF93DF93EC0110E0212F30E0FE0101902D
:100230000020E9F73197EC1BFD0B2E173F0740F428
:10024000FE01E20FF31F80810E94F5001F5FECCFDB
:10025000DF91CF911F910895CF93DF931F92CDB778
:10026000DEB78091C80087FF04C08091CE008983EB
:10027000F8CF0F90DF91CF9108951F93CF93DF9325
:10028000EC0110E00E94FC00212F30E0FE01E20FA3
:10029000F31F8D3019F080831F5FF4CF1082CE01E1
:1002A0000E940F0181E692E00E940F01DF91CF9141
:1002B0001F910C942C01FB01AC01405C5F4FDC01F1
:1002C0002D91CD013191231305C0222329F0A417CC
:1002D000B507A9F780E0089581E00895DC019C91BD
:1002E0006927E62FF0E0E455FF4FE491EC93089581
:1002F000EF92FF920F931F93CF93DF931F92CDB78F
:10030000DEB719828C017C01E60EF71E0E151F0563
:1003100041F0F80161918F01CE0101960E946E01BA
:10032000F5CF89810F90DF91CF911F910F91FF90B1
:10033000EF9008954F925F926F927F928F92AF925B
:10034000CF92DF92EF920F931F93CF93DF93CDB7AE
:10035000DEB7FC012B013A016E2D70E0C6010E9450
:100360009406892B51F58FE0C81AD1088EE2C81681
:10037000D10418F54114510401F161147104E9F03C
:1003800021153105D1F001151105B9F084EC8A0D64
:100390008D3398F48FEF880D8F3078F4518240823E
:1003A0007382628235832483178306836087E186A4
:1003B000A286838680E090E002C081E090E0DF9139
:1003C000CF911F910F91EF90DF90CF90AF908F90D2
:1003D0007F906F905F904F9008950F931F93CF93EE
:1003E000DF938C01DC011896CC91D0E0209789F046
:1003F000D8011496ED91FC9115970995811109C0CA
:10040000F80181850680F781E02D90E0099521971C
:10041000EDCFD80119968C91B82FBC9FC001BD9F1C
:10042000900D1124DF91CF911F910F9108950F939B
:100430001F93CF93DF93EC01E881F9810995EE8159
:10044000FF8180EE91E00995EA81FB810995CE015B
:100450000E94ED018C01892B19F480E091E018C015
:10046000EE81FF818CE390E00995EC81FD81099597
:10047000811113C0EE81FF8184EA91E0801B910B12
:100480000995EC81FD81099581110AC085E191E012
:100490000E940F0182E090E005C083E090E002C07E
:1004A00080E090E0DF91CF911F910F9108950F931D
:1004B0001F93CF93DF931F92CDB7DEB78C01DC0182
:1004C000ED91FC9169830995D8011696ED91FC9107
:1004D00017976981611112C01A968C9190E0099565
:1004E000D8011296ED91FC9113970995C8010E94CD
:1004F000ED01892B09F582E090E020C0D8011B9620
:100500008C9190E00995D8011296ED91FC9113978A
:100510000995C8010E94ED01009769F3F801228551
:1005200030E04385241B31090680F781E02DA901C5
:10053000481B590BCA01099580E090E00F90DF91AC
:10054000CF911F910F910895CF92DF92EF92FF927A
:100550000F931F93CF93DF93EC017B01042FE8816E
:10056000F9810995EE81FF8185E090E00995EA81A6
:10057000FB810995EE81FF8185E090E00995C12C12
:10058000D12C10E0EC81FD8109950C2C01C0880F65
:100590000A94EAF7182B8FEFC81AD80AE8E0CE16AB
:1005A000D10481F760E070E080E0212F30E0A90104
:1005B000062E02C0559547950A94E2F740FD8F5FDD
:1005C0006F5F7F4F6830710591F791E0853008F4D7
:1005D00090E0F7019083825011E0863010F010E037
:1005E00005C0002319F084E090E00AC08A8590E0FD
:1005F000EE81FF810F9709951111F5CF80E090E012
:10060000DF91CF911F910F91FF90EF90DF90CF90EE
:100610000895AF92BF92CF92DF92EF92FF920F9325
:100620001F93CF93DF931F92CDB7DEB77C01A12C30
:10063000B12CCC24C394D12C062F10E096010A2CA7
:1006400002C0220F331F0A94E2F7202331230A2C21
:1006500002C0359527950A94E2F761E0232B09F44F
:1006600060E0C70149830E9457024981009711F059
:10067000411107C02FEFA21AB20A28E0A216B10456
:10068000E9F60F90DF91CF911F910F91FF90EF90BE
:10069000DF90CF90BF90AF900895BF92CF92DF923E
:1006A000EF92FF920F931F93CF93DF931F92CDB7DB
:1006B000DEB76C017B01B42EFB01108200E010E07C
:1006C0004B2DBE016F5F7F4FC6010E94A40229819E
:1006D000002E01C0220F0A94EAF7F7013081232B84
:1006E0002083009711F0B11005C00F5F1F4F083035
:1006F000110531F70F90DF91CF911F910F91FF906E
:10070000EF90DF90CF90BF9008956F927F928F927D
:100710009F92AF92BF92CF92DF92EF92FF920F9390
:10072000CF93DF931F92CDB7DEB76C015B013A0127
:10073000211109C0402F63E3C6010E9409037C0117
:10074000892B39F40BC00E941702009799F3282FC8
:1007500054C0002319F08CE291E030C0E12CF12C60
:10076000402FB5016E0D7F1DC6010E944D034C0147
:1007700089E190E00E9439058114910449F0002339
:1007800039F081E591E00E940F01282D992D35C0A7
:100790008FEFE81AF80AE7E0EE16F10409F719827C
:1007A000402FBE016F5F7F4FC6010E944D037C0149
:1007B000892B49F0002339F086E791E00E940F0170
:1007C0002E2D9F2D1AC06114710419F08981F30137
:1007D000808367E070E0C5010E94780199819813D9
:1007E00002C09F3F31F486E991E00E940F0125E0AD
:1007F00003C0F501978320E090E0822F0F90DF91F6
:10080000CF910F91FF90EF90DF90CF90BF90AF907E
:100810009F908F907F906F900895F999FECF92BD31
:1008200081BD60BDFA9AF99A0895F999FECF92BDFB
:1008300081BDF89A80B50895EF92FF920F931F93B0
:10084000CF93DF937C01062F000F000F000FC62F00
:10085000D0E0219683E0CC0FDD1F8A95E1F7102FC1
:10086000812F801B212F30E02C173D0754F4F70116
:10087000E80FF11D6081C90102960E940D041F5FFF
:10088000EFCFDF91CF911F910F91FF90EF900895DF
:10089000BF92CF92DF92EF92FF920F931F93CF936D
:1008A000DF936C017B0186EA91E00E940F0100E07A
:1008B00010E0C12FD0E0CE15DF0520F583EB91E0ED
:1008C0000E940F01812F0E94F5008AE00E94F5002E
:1008D000219683E0CC0FDD1F8A95E1F7B02E8B2D9A
:1008E00090E08C179D0744F4F601E80FF91F808112
:1008F0000E94F500B394F3CF8AE00E94F5001F5FD9
:10090000085FD7CFDF91CF911F910F91FF90EF90AC
:10091000DF90CF90BF9008958F929F92AF92BF9239
:10092000CF92DF92EF92FF920F931F93CF93DF93BB
:100930001F92CDB7DEB77C016B0140E0B12C2B2DAF
:1009400030E02E153F05F0F42F5F3F4F490183E063
:10095000880C991C8A95E1F7A42E0A2D10E0081541
:1009600019056CF460E0C801029649830E940D04E9
:10097000F601E00FF11F1082A3944981EECFB394EA
:10098000485FDDCF60E081E090E00F90DF91CF9194
:100990001F910F91FF90EF90DF90CF90BF90AF909D
:1009A0009F908F900C940D040F931F93CF93DF9320
:1009B0001F92CDB7DEB78C01CB0167E070E04983B1
:1009C0000E947801282FF801379690E080E0498155
:1009D000941739F03081321301C081E09F5F38965F
:1009E000F7CF0F90DF91CF911F910F910895AF92A4
:1009F000BF92CF92DF92FF920F931F93CF93DF931B
:100A00006C0181E090E00E941504F82E8823E1F04B
:100A1000C8E0D0E010E00C2F0850802F90E08C1739
:100A20009D0774F45601A80EB91E02960E94150483
:100A3000F501808389E190E00E9439050F5FEDCFD9
:100A40001F5F28961F11E7CFDF91CF911F910F9164
:100A5000FF90DF90CF90BF90AF9008952D98259A8A
:100A6000089525982D9A089583B185FB882780F9EC
:100A70000895009731F025E02A95F1F700000197DD
:100A8000F8CF0895CF93DF93CDB7DEB765970FB654
:100A9000F894DEBF0FBECDBF219A2D9A0E940301AC
:100AA00060911C038DE193E00E94F70481E090E0E7
:100AB0000E94150480931C0385E0882E9CE3A92ED8
:100AC0002CE3C22ED12C35E0E32E09E315E024E31C
:100AD00035E041E355E06EE275E0CE0101960E94FB
:100AE0009A0180EC91E00E940F0184EF91E00E9456
:100AF00039058AEC91E00E940F0184EF91E00E9499
:100B0000390583ED91E00E940F0184EF91E00E948E
:100B100039058EED91E00E940F0184EF91E00E9473
:100B2000390584EE91E00E940F0184EF91E00E946C
:100B3000390588ED91E00E940F0188EE93E00E9454
:100B400039058BEE91E00E940F018CED92E00E943E
:100B50003D0162EF71E08CED92E00E945B01882321
:100B600009F445C02FEF87EA91E62150804090407C
:100B7000E1F700C0000000E021E0AE014B5E5F4FF6
:100B8000BE01635F7F4FCE0101960E948503892BD2
:100B900051F540911C03BE01635F7F4F8DE193E0EF
:100BA0000E94D404882319F08AEF91E01EC060915E
:100BB0001C03CE010D960E941C0460911C036F5F04
:100BC00060931C0381E090E00E940D0460911C037F
:100BD0008DE193E00E94F70484EF91E00E943905D3
:100BE00085E192E002C088E392E00E940F016DE48B
:100BF00072E08CED92E00E945B01882371F06091BD
:100C00001C03611105C087E592E00E940F0105C039
:100C100070E08DE193E00E94480463E672E08CEDA1
:100C200092E00E945B018823C1F1199932C02FEF35
:100C300087EA91E6215080409040E1F700C0000033
:100C400000E021E0AE014B5E5F4FBE01635F7F4F6E
:100C5000CE0101960E948503892BC1F440911C03AB
:100C6000BE01635F7F4F8DE193E00E94D40488232F
:100C700051F088E692E00E940F01299A84EF91E0FA
:100C80000E9439050AC081E792E005C088E392E03E
:100C900002C089E792E00E940F016AE872E08CEDE1
:100CA00092E00E945B01882351F0199B04C02998AF
:100CB00080E992E002C088E992E00E940F0162E5BB
:100CC00072E08CED92E00E945B01882341F088EA9B
:100CD00092E00E940F0180911C030E94F5006AEBD4
:100CE00072E08CED92E00E945B01882399F0809184
:100CF0001C036DE173E090E00E948C0460911C0382
:100D00008DE193E00E94F70410921C0380EC92E0C6
:100D10000E940F0167ED72E08CED92E00E945B0192
:100D2000882309F412CFDDCEAA1BBB1B51E107C0FB
:100D3000AA1FBB1FA617B70710F0A61BB70B881F6B
:100D4000991F5A95A9F780959095BC01CD010895FA
:040D5000F894FFCF45
:100D54004C696E652063616E2774207265636F76DB
:100D64006572210A004C696E652063616E277420E8
:100D74007265636F7665722032210A006661696C60
:100D8400656420746F207472616E736D697420528F
:100D9400454144524F4D20636F6D6D616E64210A6D
:100DA4000043616E27742067657420616E79206446
:100DB4006174612066726F6D207468652064657665
:100DC400696365210A0043616E2774206765742096
:100DD4004352432066726F6D2074686520646576A3
:100DE400696365210A000A435243206D69736D618A
:100DF400746368210A00546865206B657973203A2E
:100E0400200A004B6579206E756D626572203A0088
:100E14005553414745203A200A004144445F4B451D
:100E2400590A0053484F575F4B4559530A004F50D6
:100E3400454E0A00434C4F53450A00455241534521
:100E44000A004144445F4B4559004B65792069735E
:100E540020616C726561647920696E206D656D6FC7
:100E64007279210A000A6B657920686173206265D2
:100E7400656E207375636365737366756C6C792036
:100E84006164646564210A006B65792069736E2767
:100E940074207375697461626C65200A0053484F4D
:100EA400575F4B455953004E4F204B455953202112
:100EB400200A004F50454E004F50454E4544210AEC
:100EC400004E4F204B45590A00416C7265616479AC
:100ED400206F70656E6564210A00434C4F534500D2
:100EE400434C4F5345440A00416C72656164792058
:100EF400636C6F7365640A00414D4F554E54204F27
:100F040046204B455953203A0A0045524153450067
:100F14004441544120484153204245454E204552C6
:0C0F240041534544210A0048454C500050
:00000001FF
