:100000000C9456000C94FE010C9447020C9473005F
:100010000C9473000C9473000C9473000C94730094
:100020000C9473000C9473000C9473000C94730084
:100030000C9473000C9473000C9473000C94730074
:100040000C9473000C9473000C9473000C94730064
:100050000C9486020C9473000C9473000C9473003F
:100060000C9473000C9473000C9473000C94730044
:100070000C9473000C9473000C9473000C94730034
:100080000C9473000C9473000C9473000C94730024
:100090000C9473000C9473000C9473000C94730014
:1000A0000C9473000C9473000C94730011241FBE05
:1000B000CFEFDAE0DEBFCDBF11E0A0E0B1E0E2E7D4
:1000C000F6E002C005900D92AC32B107D9F721E0FD
:1000D000ACE2B1E001C01D92AF32B207E1F70E947D
:1000E00005030C9437030C940000FB012AE030E078
:1000F000B9010E9423038193CB010097C9F70895AA
:10010000EF92FF920F931F93CF93DF9300D000D015
:1001100000D0CDB7DEB79A8389839C012D5F3F4F16
:100120003C832B8306969E838D83CE0101967C01B2
:10013000BE01695F7F4F41E050E0D701ED91FD9135
:100140007D0180819181DC0114960D911C911597A0
:10015000D8019C919A01028002C0220F331F0A9499
:10016000E2F7822F809589238C9380819181DC0135
:100170002D913C91D9011C91CA01028002C0880FC7
:10018000991F0A94E2F7812B8C93E616F706A9F6DD
:1001900026960FB6F894DEBF0FBECDBFDF91CF918C
:1001A0001F910F91FF90EF900895CF92DF92EF9201
:1001B000FF920F931F93CF93DF931F92CDB7DEB7BC
:1001C0006C0188E0E82EF12C01E010E0862F881FFA
:1001D0008827881F660FD6011696ED91FC91179718
:1001E00018962C910480F581E02D882341F0308110
:1001F000C80101C0880F2A95EAF7832B0AC09081B5
:10020000A80102C0440F551F2A95E2F7842F80955C
:1002100089238083D601ED91FC9111970480F581AB
:10022000E02D9081980112960C90129702C0220F37
:10023000331F0A94E2F7822F8095892380831996D1
:10024000ED91FC911A9785E069830995D601ED91AE
:10025000FC9111970480F581E02D2081C801129650
:100260000C90129702C0880F991F0A94E2F7822B14
:1002700080831996ED91FC911A9785E00995B1E07C
:10028000EB1AF1086981E114F10409F09FCF0F9096
:10029000DF91CF911F910F91FF90EF90DF90CF9062
:1002A00008950F931F93CF93DF93EC01EB81FC81B3
:1002B0000480F581E02D908101E010E098010D802F
:1002C00002C0220F331F0A94E2F7822F8095892300
:1002D0008083E985FA8585E00995EB81FC810480BE
:1002E000F581E02D80810D8002C0000F111F0A945E
:1002F000E2F7082B0083E985FA8585E0DF91CF914D
:100300001F910F910994CF92DF92FF920F931F9349
:10031000CF93DF93EC016B018B010C5F1F4FFF2428
:10032000F394F80162918F019D85911101C0609550
:10033000CE010E94D5006F2DCE010E94D500FF0C8A
:10034000CE010E945101EB85FC8581E090E009958A
:100350000C151D0531F7DF91CF911F910F91FF9083
:10036000DF90CF9008958A95F1F70895CF93DF93AA
:1003700000D01F92CDB7DEB79B838A838FEF89832E
:100380008A819B819C01215031093B832A83892BDF
:1003900039F089819FEF980F99838111FACFF0CFBF
:1003A0000F900F900F90DF91CF910895A4E1B1E0ED
:1003B0006AE00E941703E82FF0E0E85EFE4F8081BC
:1003C00012968C931297E92FF0E0E85EFE4F808141
:1003D00013968C930895A4E1B1E06AE00E9417039C
:1003E000E82FF0E0E85EFE4F80818C93E92FF0E08B
:1003F000EE5DFE4F808111968C9308951F920F92AF
:100400000FB60F9211242F933F934F935F936F93E7
:100410007F938F939F93AF93BF93EF93FF934899ED
:1004200025C084E690E00E94B60148991FC08091E3
:100430002D018B3320F48F5F80932D0107C0109224
:100440002D0180912C018F5F80932C0110922E0141
:1004500080912D010E94D60180912C010E94EB0118
:1004600087EF92EC9093850080938400FF91EF9149
:10047000BF91AF919F918F917F916F915F914F91BC
:100480003F912F910F900FBE0F901F9018951F92C4
:100490000F920FB60F9211242F933F934F935F93B8
:1004A0006F937F938F939F93AF93BF93EF93FF933C
:1004B00049991BC084E690E00E94B601499915C095
:1004C00080912C01873120F010922C0180E003C034
:1004D0008F5F80932C010E94EB0110922E0187EF19
:1004E00092EC9093850080938400FF91EF91BF91EF
:1004F000AF919F918F917F916F915F914F913F91BC
:100500002F910F900FBE0F901F9018951F920F9272
:100510000FB60F9211242F933F934F935F936F93D6
:100520007F938F939F93AF93BF93EF93FF938091AC
:100530002E018B3320F48F5F80932E0107C0109221
:100540002E0180912D018F5F80932D0180912D01CF
:100550008C3338F010922D0180912C018F5F8093A5
:100560002C0180912C01883110F010922C01809187
:100570002D010E94D60180912C010E94EB0187EF92
:1005800092EC9093850080938400FF91EF91BF914E
:10059000AF919F918F917F916F915F914F913F911B
:1005A0002F910F900FBE0F901F9018958DB3836001
:1005B0008DBBE9E6F0E080818A6080838AB1836048
:1005C0008AB98BB183608BB90895E1E8F0E080814E
:1005D00085608083EFE6F0E080818160808387EF33
:1005E00092EC909385008093840008951092DA0035
:1005F0001092E10080E08093E9001092F0001092E8
:10060000E8008F5F8630B9F708950E94F60280E017
:1006100091E00E9480000E94D60278940E94E50238
:1006200064E171E080E091E00E948301F9CF991BC1
:1006300079E004C0991F961708F0961B881F7A95D9
:10064000C9F780950895AA1BBB1B51E107C0AA1FDB
:10065000BB1FA617B70710F0A61BB70B881F991F63
:100660005A95A9F780959095BC01CD010895F8940D
:02067000FFCFBA
:100672000E01040E01050E0106B301B601002400AD
:10068200230025003FBF3F3F3F065B4F666D7D075E
:0C0692007F6FBF86DBCFE6EDFD87FFEF3A
:00000001FF
