:100000000C9456000C9473000C9473000C947300C1
:100010000C9473000C9473000C9473000C94730094
:100020000C9473000C9473000C9473000C94730084
:100030000C9473000C9473000C9473000C94730074
:100040000C9473000C9473000C9473000C94730064
:100050000C9473000C9473000C9473000C94730054
:100060000C9473000C9473000C9473000C94730044
:100070000C9473000C9473000C9473000C94730034
:100080000C9473000C9473000C9473000C94730024
:100090000C9473000C9473000C9473000C94730014
:1000A0000C9473000C9473000C94730011241FBE05
:1000B000CFEFDAE0DEBFCDBF11E0A0E0B1E0E6EFC8
:1000C000F1E002C005900D92A230B107D9F721E00E
:1000D000A2E0B1E001C01D92A330B207E1F70E9497
:1000E0009F000C94F9000C940000CF93DF9300D094
:1000F0001F92CDB7DEB79B838A838FEF89838A8176
:100100009B819C01215031093B832A83892B39F043
:1001100089819FEF980F99838111FACFF0CF0F90CB
:100120000F900F90DF91CF91089584B5816884BDC1
:1001300085B5816085BD279A089587BD08950E9481
:100140009500C9EFD0E08091000124E6829FC001B4
:1001500011248C599F4FBE010E94D1008093000151
:1001600080930201823891052CF087BD8CE291E0EA
:100170000E947500809102019BE9980F9D3128F43F
:1001800087BD86E990E00E9475008091020193ECA2
:10019000980F9832C0F687BD82E390E00E94750008
:1001A000D2CF97FB072E16F4009407D077FD09D025
:1001B0000E94E50007FC05D03EF4909581959F4F85
:1001C0000895709561957F4F0895AA1BBB1B51E15F
:1001D00007C0AA1FBB1FA617B70710F0A61BB70BB7
:1001E000881F991F5A95A9F780959095BC01CD015C
:0601F0000895F894FFCF12
:0201F6006400A3
:00000001FF
