:100000000C9456000C9473000C9473000C947300C1
:100010000C9473000C9473000C9473000C94730094
:100020000C9473000C9473000C9473000C94730084
:100030000C9473000C9473000C9473000C94730074
:100040000C9473000C9473000C9473000C94730064
:100050000C9473000C9473000C9473000C94730054
:100060000C9473000C9473000C9473000C94730044
:100070000C9473000C9473000C9473000C94730034
:100080000C9473000C9473000C9473000C94730024
:100090000C9473000C9473000C9473000C94730014
:1000A0000C9473000C9473000C94730011241FBE05
:1000B000CFEFDAE0DEBFCDBF11E0A0E0B1E0EAECC7
:1000C000F2E002C005900D92A430B107D9F721E00B
:1000D000A4E0B1E001C01D92A530B207E1F70E9493
:1000E00005010C9463010C9400009091C80095FFE9
:1000F000FCCF8093CE0008958091C80087FFFCCF8D
:100100008091CE0008951092CD0087E68093CC00B8
:1001100088E18093C9008EE08093CA0008951F9300
:10012000CF93DF93EC0110E0212F30E0FE0101902E
:100130000020E9F73197EC1BFD0B2E173F0740F429
:10014000FE01E20FF31F80810E9475001F5FECCF5C
:10015000DF91CF911F9108951F93CF93DF93EC010F
:1001600010E00E947C00212F30E0FE01E20FF31F1F
:100170008D3019F080831F5FF4CF1082CE010E9472
:100180008F0081E091E0DF91CF911F910C948F005F
:10019000FB01AC01405C5F4FDC012D91CD01319141
:1001A000231305C0222329F0A417B507A9F780E07F
:1001B000089581E00895CF93DF9300D01F92CDB7CB
:1001C000DEB79B838A838FEF89838A819B819C0121
:1001D000215031093B832A83892B39F089819FEF94
:1001E000980F99838111FACFF0CF0F900F900F9055
:1001F000DF91CF91089584B5816884BD85B5816014
:1002000085BD279A089587BD08950E94FB00C9EF18
:10021000D0E08091000124E6829FC00111248C5916
:100220009F4FBE010E943B01809300018093040117
:10023000823891052CF087BD8CE291E00E94DB00B2
:10024000809104019BE9980F9D3128F487BD86E9D0
:1002500090E00E94DB008091040193EC980F9832AB
:1002600028F487BD82E390E00E94DB0080910401C6
:100270000E947500CECF97FB072E16F4009407D08E
:1002800077FD09D00E944F0107FC05D03EF4909500
:1002900081959F4F0895709561957F4F0895AA1B92
:1002A000BB1B51E107C0AA1FBB1FA617B70710F061
:1002B000A61BB70B881F991F5A95A9F78095909593
:0A02C000BC01CD010895F894FFCFB2
:0402CA00640A0000C2
:00000001FF
